{
  "_format": "hh-sol-artifact-1",
  "contractName": "ExamSystem",
  "sourceName": "contracts/ExamSystem.sol",
  "abi": [
    {
      "inputs": [],
      "stateMutability": "nonpayable",
      "type": "constructor"
    },
    {
      "inputs": [],
      "name": "AlreadyEnrolled",
      "type": "error"
    },
    {
      "inputs": [],
      "name": "CannotRevokeRegisteredUser",
      "type": "error"
    },
    {
      "inputs": [],
      "name": "EnrollmentMatricMismatch",
      "type": "error"
    },
    {
      "inputs": [],
      "name": "ExamDoesNotExist",
      "type": "error"
    },
    {
      "inputs": [],
      "name": "InvalidSelfSignupRole",
      "type": "error"
    },
    {
      "inputs": [],
      "name": "InvalidWalletAddress",
      "type": "error"
    },
    {
      "inputs": [],
      "name": "MatricAlreadyInUse",
      "type": "error"
    },
    {
      "inputs": [],
      "name": "MatricClashOrUnenrolled",
      "type": "error"
    },
    {
      "inputs": [],
      "name": "MatricRequired",
      "type": "error"
    },
    {
      "inputs": [],
      "name": "NameRequired",
      "type": "error"
    },
    {
      "inputs": [],
      "name": "NotEnrolled",
      "type": "error"
    },
    {
      "inputs": [],
      "name": "OnlyAdminAllowed",
      "type": "error"
    },
    {
      "inputs": [],
      "name": "OnlyOwnerAllowed",
      "type": "error"
    },
    {
      "inputs": [],
      "name": "OnlyOwnerOrAdminAllowed",
      "type": "error"
    },
    {
      "inputs": [],
      "name": "UserNotRegistered",
      "type": "error"
    },
    {
      "anonymous": false,
      "inputs": [
        {
          "indexed": true,
          "internalType": "address",
          "name": "wallet",
          "type": "address"
        }
      ],
      "name": "EnrollmentRevoked",
      "type": "event"
    },
    {
      "anonymous": false,
      "inputs": [
        {
          "indexed": true,
          "internalType": "uint256",
          "name": "examId",
          "type": "uint256"
        },
        {
          "indexed": false,
          "internalType": "string",
          "name": "title",
          "type": "string"
        },
        {
          "indexed": false,
          "internalType": "address",
          "name": "creator",
          "type": "address"
        }
      ],
      "name": "ExamCreated",
      "type": "event"
    },
    {
      "anonymous": false,
      "inputs": [
        {
          "indexed": true,
          "internalType": "address",
          "name": "student",
          "type": "address"
        },
        {
          "indexed": true,
          "internalType": "uint256",
          "name": "examId",
          "type": "uint256"
        },
        {
          "indexed": false,
          "internalType": "uint256",
          "name": "score",
          "type": "uint256"
        }
      ],
      "name": "ExamSubmitted",
      "type": "event"
    },
    {
      "anonymous": false,
      "inputs": [
        {
          "indexed": false,
          "internalType": "string",
          "name": "studentID",
          "type": "string"
        },
        {
          "indexed": true,
          "internalType": "uint256",
          "name": "examID",
          "type": "uint256"
        },
        {
          "indexed": false,
          "internalType": "uint256",
          "name": "riskScore",
          "type": "uint256"
        }
      ],
      "name": "FraudLogged",
      "type": "event"
    },
    {
      "anonymous": false,
      "inputs": [
        {
          "indexed": true,
          "internalType": "address",
          "name": "wallet",
          "type": "address"
        },
        {
          "indexed": false,
          "internalType": "string",
          "name": "matricNumber",
          "type": "string"
        },
        {
          "indexed": false,
          "internalType": "enum ExamSystem.Role",
          "name": "role",
          "type": "uint8"
        }
      ],
      "name": "UserEnrolled",
      "type": "event"
    },
    {
      "anonymous": false,
      "inputs": [
        {
          "indexed": true,
          "internalType": "address",
          "name": "wallet",
          "type": "address"
        },
        {
          "indexed": false,
          "internalType": "string",
          "name": "name",
          "type": "string"
        },
        {
          "indexed": false,
          "internalType": "enum ExamSystem.Role",
          "name": "role",
          "type": "uint8"
        }
      ],
      "name": "UserRegistered",
      "type": "event"
    },
    {
      "inputs": [
        {
          "internalType": "uint256",
          "name": "",
          "type": "uint256"
        }
      ],
      "name": "allResults",
      "outputs": [
        {
          "internalType": "address",
          "name": "student",
          "type": "address"
        },
        {
          "internalType": "uint256",
          "name": "examId",
          "type": "uint256"
        },
        {
          "internalType": "uint256",
          "name": "score",
          "type": "uint256"
        },
        {
          "internalType": "uint256",
          "name": "timestamp",
          "type": "uint256"
        }
      ],
      "stateMutability": "view",
      "type": "function"
    },
    {
      "inputs": [],
      "name": "contractOwner",
      "outputs": [
        {
          "internalType": "address",
          "name": "",
          "type": "address"
        }
      ],
      "stateMutability": "view",
      "type": "function"
    },
    {
      "inputs": [
        {
          "internalType": "string",
          "name": "_subject",
          "type": "string"
        },
        {
          "internalType": "string",
          "name": "_title",
          "type": "string"
        },
        {
          "internalType": "string",
          "name": "_questionData",
          "type": "string"
        }
      ],
      "name": "createExam",
      "outputs": [],
      "stateMutability": "nonpayable",
      "type": "function"
    },
    {
      "inputs": [
        {
          "internalType": "address",
          "name": "_wallet",
          "type": "address"
        },
        {
          "internalType": "string",
          "name": "_matricNumber",
          "type": "string"
        },
        {
          "internalType": "enum ExamSystem.Role",
          "name": "_role",
          "type": "uint8"
        }
      ],
      "name": "enrollUser",
      "outputs": [],
      "stateMutability": "nonpayable",
      "type": "function"
    },
    {
      "inputs": [
        {
          "internalType": "address",
          "name": "",
          "type": "address"
        }
      ],
      "name": "enrollments",
      "outputs": [
        {
          "internalType": "string",
          "name": "matricNumber",
          "type": "string"
        },
        {
          "internalType": "enum ExamSystem.Role",
          "name": "allowedRole",
          "type": "uint8"
        },
        {
          "internalType": "bool",
          "name": "isEnrolled",
          "type": "bool"
        }
      ],
      "stateMutability": "view",
      "type": "function"
    },
    {
      "inputs": [
        {
          "internalType": "uint256",
          "name": "",
          "type": "uint256"
        }
      ],
      "name": "exams",
      "outputs": [
        {
          "internalType": "uint256",
          "name": "id",
          "type": "uint256"
        },
        {
          "internalType": "string",
          "name": "subject",
          "type": "string"
        },
        {
          "internalType": "string",
          "name": "title",
          "type": "string"
        },
        {
          "internalType": "string",
          "name": "questionData",
          "type": "string"
        },
        {
          "internalType": "address",
          "name": "creator",
          "type": "address"
        },
        {
          "internalType": "bool",
          "name": "isActive",
          "type": "bool"
        }
      ],
      "stateMutability": "view",
      "type": "function"
    },
    {
      "inputs": [
        {
          "internalType": "uint256",
          "name": "",
          "type": "uint256"
        }
      ],
      "name": "fraudHistory",
      "outputs": [
        {
          "internalType": "string",
          "name": "studentID",
          "type": "string"
        },
        {
          "internalType": "uint256",
          "name": "examID",
          "type": "uint256"
        },
        {
          "internalType": "uint256",
          "name": "riskScore",
          "type": "uint256"
        },
        {
          "internalType": "uint256",
          "name": "timestamp",
          "type": "uint256"
        },
        {
          "internalType": "string",
          "name": "evidenceHash",
          "type": "string"
        }
      ],
      "stateMutability": "view",
      "type": "function"
    },
    {
      "inputs": [
        {
          "internalType": "address",
          "name": "_wallet",
          "type": "address"
        }
      ],
      "name": "getEnrollment",
      "outputs": [
        {
          "internalType": "string",
          "name": "matricNumber",
          "type": "string"
        },
        {
          "internalType": "enum ExamSystem.Role",
          "name": "allowedRole",
          "type": "uint8"
        },
        {
          "internalType": "bool",
          "name": "isEnrolled",
          "type": "bool"
        }
      ],
      "stateMutability": "view",
      "type": "function"
    },
    {
      "inputs": [
        {
          "internalType": "uint256",
          "name": "_examId",
          "type": "uint256"
        }
      ],
      "name": "getExam",
      "outputs": [
        {
          "internalType": "uint256",
          "name": "",
          "type": "uint256"
        },
        {
          "internalType": "string",
          "name": "",
          "type": "string"
        },
        {
          "internalType": "string",
          "name": "",
          "type": "string"
        },
        {
          "internalType": "string",
          "name": "",
          "type": "string"
        },
        {
          "internalType": "bool",
          "name": "",
          "type": "bool"
        }
      ],
      "stateMutability": "view",
      "type": "function"
    },
    {
      "inputs": [],
      "name": "getExamCount",
      "outputs": [
        {
          "internalType": "uint256",
          "name": "",
          "type": "uint256"
        }
      ],
      "stateMutability": "view",
      "type": "function"
    },
    {
      "inputs": [],
      "name": "getFraudHistory",
      "outputs": [
        {
          "components": [
            {
              "internalType": "string",
              "name": "studentID",
              "type": "string"
            },
            {
              "internalType": "uint256",
              "name": "examID",
              "type": "uint256"
            },
            {
              "internalType": "uint256",
              "name": "riskScore",
              "type": "uint256"
            },
            {
              "internalType": "uint256",
              "name": "timestamp",
              "type": "uint256"
            },
            {
              "internalType": "string",
              "name": "evidenceHash",
              "type": "string"
            }
          ],
          "internalType": "struct ExamSystem.FraudEvent[]",
          "name": "",
          "type": "tuple[]"
        }
      ],
      "stateMutability": "view",
      "type": "function"
    },
    {
      "inputs": [
        {
          "internalType": "address",
          "name": "_addr",
          "type": "address"
        }
      ],
      "name": "getUser",
      "outputs": [
        {
          "internalType": "string",
          "name": "name",
          "type": "string"
        },
        {
          "internalType": "string",
          "name": "matricNumber",
          "type": "string"
        },
        {
          "internalType": "enum ExamSystem.Role",
          "name": "role",
          "type": "uint8"
        },
        {
          "internalType": "bool",
          "name": "isRegistered",
          "type": "bool"
        }
      ],
      "stateMutability": "view",
      "type": "function"
    },
    {
      "inputs": [
        {
          "internalType": "string",
          "name": "_studentID",
          "type": "string"
        },
        {
          "internalType": "uint256",
          "name": "_examID",
          "type": "uint256"
        },
        {
          "internalType": "uint256",
          "name": "_riskScore",
          "type": "uint256"
        },
        {
          "internalType": "string",
          "name": "_evidenceHash",
          "type": "string"
        }
      ],
      "name": "logFraudEvent",
      "outputs": [],
      "stateMutability": "nonpayable",
      "type": "function"
    },
    {
      "inputs": [
        {
          "internalType": "string",
          "name": "",
          "type": "string"
        }
      ],
      "name": "matricToWallet",
      "outputs": [
        {
          "internalType": "address",
          "name": "",
          "type": "address"
        }
      ],
      "stateMutability": "view",
      "type": "function"
    },
    {
      "inputs": [
        {
          "internalType": "string",
          "name": "_name",
          "type": "string"
        },
        {
          "internalType": "string",
          "name": "_matricNumber",
          "type": "string"
        },
        {
          "internalType": "enum ExamSystem.Role",
          "name": "_requestedRole",
          "type": "uint8"
        }
      ],
      "name": "registerUser",
      "outputs": [],
      "stateMutability": "nonpayable",
      "type": "function"
    },
    {
      "inputs": [
        {
          "internalType": "address",
          "name": "_wallet",
          "type": "address"
        }
      ],
      "name": "revokeEnrollment",
      "outputs": [],
      "stateMutability": "nonpayable",
      "type": "function"
    },
    {
      "inputs": [
        {
          "internalType": "uint256",
          "name": "_examId",
          "type": "uint256"
        },
        {
          "internalType": "uint256",
          "name": "_score",
          "type": "uint256"
        }
      ],
      "name": "submitExam",
      "outputs": [],
      "stateMutability": "nonpayable",
      "type": "function"
    },
    {
      "inputs": [
        {
          "internalType": "address",
          "name": "",
          "type": "address"
        }
      ],
      "name": "users",
      "outputs": [
        {
          "internalType": "string",
          "name": "name",
          "type": "string"
        },
        {
          "internalType": "string",
          "name": "matricNumber",
          "type": "string"
        },
        {
          "internalType": "enum ExamSystem.Role",
          "name": "role",
          "type": "uint8"
        },
        {
          "internalType": "bool",
          "name": "isRegistered",
          "type": "bool"
        },
        {
          "internalType": "address",
          "name": "walletAddress",
          "type": "address"
        }
      ],
      "stateMutability": "view",
      "type": "function"
    }
  ],
  "bytecode": "0x60806040523480156200001157600080fd5b50336000806101000a81548173ffffffffffffffffffffffffffffffffffffffff021916908373ffffffffffffffffffffffffffffffffffffffff16021790555060405180606001604052806040518060400160405280600981526020017f41444d494e2d3030310000000000000000000000000000000000000000000000815250815260200160016003811115620000af57620000ae620001cb565b5b815260200160011515815250600260003373ffffffffffffffffffffffffffffffffffffffff1673ffffffffffffffffffffffffffffffffffffffff168152602001908152602001600020600082015181600001908162000111919062000474565b5060208201518160010160006101000a81548160ff0219169083600381111562000140576200013f620001cb565b5b021790555060408201518160010160016101000a81548160ff0219169083151502179055509050503360036040516200017990620005b6565b908152602001604051809103902060006101000a81548173ffffffffffffffffffffffffffffffffffffffff021916908373ffffffffffffffffffffffffffffffffffffffff160217905550620005cd565b7f4e487b7100000000000000000000000000000000000000000000000000000000600052602160045260246000fd5b600081519050919050565b7f4e487b7100000000000000000000000000000000000000000000000000000000600052604160045260246000fd5b7f4e487b7100000000000000000000000000000000000000000000000000000000600052602260045260246000fd5b600060028204905060018216806200027c57607f821691505b60208210810362000292576200029162000234565b5b50919050565b60008190508160005260206000209050919050565b60006020601f8301049050919050565b600082821b905092915050565b600060088302620002fc7fffffffffffffffffffffffffffffffffffffffffffffffffffffffffffffffff82620002bd565b620003088683620002bd565b95508019841693508086168417925050509392505050565b6000819050919050565b6000819050919050565b6000620003556200034f620003498462000320565b6200032a565b62000320565b9050919050565b6000819050919050565b620003718362000334565b6200038962000380826200035c565b848454620002ca565b825550505050565b600090565b620003a062000391565b620003ad81848462000366565b505050565b5b81811015620003d557620003c960008262000396565b600181019050620003b3565b5050565b601f8211156200042457620003ee8162000298565b620003f984620002ad565b8101602085101562000409578190505b620004216200041885620002ad565b830182620003b2565b50505b505050565b600082821c905092915050565b6000620004496000198460080262000429565b1980831691505092915050565b600062000464838362000436565b9150826002028217905092915050565b6200047f82620001fa565b67ffffffffffffffff8111156200049b576200049a62000205565b5b620004a7825462000263565b620004b4828285620003d9565b600060209050601f831160018114620004ec5760008415620004d7578287015190505b620004e3858262000456565b86555062000553565b601f198416620004fc8662000298565b60005b828110156200052657848901518255600182019150602085019450602081019050620004ff565b8683101562000546578489015162000542601f89168262000436565b8355505b6001600288020188555050505b505050505050565b600081905092915050565b7f41444d494e2d3030310000000000000000000000000000000000000000000000600082015250565b60006200059e6009836200055b565b9150620005ab8262000566565b600982019050919050565b6000620005c3826200058f565b9150819050919050565b613a4380620005dd6000396000f3fe608060405234801561001057600080fd5b50600436106101165760003560e01c8063a0138997116100a2578063be5f604011610071578063be5f60401461032a578063ce606ee014610348578063d2d3aa3214610366578063e36d20c214610382578063f97563d5146103b457610116565b8063a013899714610276578063a15066a714610292578063a520d322146102c6578063a87430ba146102f657610116565b80636622be73116100e95780636622be73146101ba5780636f77926b146101d65780637fcf16951461020957806385ec3d5a14610227578063900e59ec1461025a57610116565b806329ba5dd01461011b5780632e17a9311461014d578063362dff3c146101695780634198cb3f14610185575b600080fd5b61013560048036038101906101309190612a86565b6103e8565b60405161014493929190612bd5565b60405180910390f35b61016760048036038101906101629190612c9d565b6104b4565b005b610183600480360381019061017e9190612d68565b610bac565b005b61019f600480360381019061019a9190612e0f565b610d9c565b6040516101b196959493929190612e5a565b60405180910390f35b6101d460048036038101906101cf9190612ed0565b610fad565b005b6101f060048036038101906101eb9190612a86565b6114bc565b6040516102009493929190612f44565b60405180910390f35b610211611704565b60405161021e919061312f565b60405180910390f35b610241600480360381019061023c9190612e0f565b6118a5565b6040516102519493929190613151565b60405180910390f35b610274600480360381019061026f9190612a86565b611905565b005b610290600480360381019061028b9190613196565b611d4f565b005b6102ac60048036038101906102a79190612e0f565b611ef1565b6040516102bd9594939291906131d6565b60405180910390f35b6102e060048036038101906102db9190613367565b612047565b6040516102ed91906133b0565b60405180910390f35b610310600480360381019061030b9190612a86565b612090565b6040516103219594939291906133cb565b60405180910390f35b610332612210565b60405161033f919061342c565b60405180910390f35b61035061221d565b60405161035d91906133b0565b60405180910390f35b610380600480360381019061037b9190613447565b612241565b005b61039c60048036038101906103979190612a86565b612589565b6040516103ab93929190612bd5565b60405180910390f35b6103ce60048036038101906103c99190612e0f565b6126e1565b6040516103df9594939291906134fb565b60405180910390f35b600260205280600052604060002060009150905080600001805461040b90613592565b80601f016020809104026020016040519081016040528092919081815260200182805461043790613592565b80156104845780601f1061045957610100808354040283529160200191610484565b820191906000526020600020905b81548152906001019060200180831161046757829003601f168201915b5050505050908060010160009054906101000a900460ff16908060010160019054906101000a900460ff16905083565b6000600260003373ffffffffffffffffffffffffffffffffffffffff1673ffffffffffffffffffffffffffffffffffffffff16815260200190815260200160002060405180606001604052908160008201805461051090613592565b80601f016020809104026020016040519081016040528092919081815260200182805461053c90613592565b80156105895780601f1061055e57610100808354040283529160200191610589565b820191906000526020600020905b81548152906001019060200180831161056c57829003601f168201915b505050505081526020016001820160009054906101000a900460ff1660038111156105b7576105b6612b43565b5b60038111156105c9576105c8612b43565b5b81526020016001820160019054906101000a900460ff1615151515815250509050600160003373ffffffffffffffffffffffffffffffffffffffff1673ffffffffffffffffffffffffffffffffffffffff16815260200190815260200160002060020160019054906101000a900460ff1615610671576040517f6d6d97d900000000000000000000000000000000000000000000000000000000815260040160405180910390fd5b600086869050036106ae576040517fd98c3ce600000000000000000000000000000000000000000000000000000000815260040160405180910390fd5b600084849050036106eb576040517f892bab0600000000000000000000000000000000000000000000000000000000815260040160405180910390fd5b600073ffffffffffffffffffffffffffffffffffffffff16600385856040516107159291906135f3565b908152602001604051809103902060009054906101000a900473ffffffffffffffffffffffffffffffffffffffff1673ffffffffffffffffffffffffffffffffffffffff16141580156107d457503373ffffffffffffffffffffffffffffffffffffffff166003858560405161078c9291906135f3565b908152602001604051809103902060009054906101000a900473ffffffffffffffffffffffffffffffffffffffff1673ffffffffffffffffffffffffffffffffffffffff1614155b1561080b576040517f24c9609e00000000000000000000000000000000000000000000000000000000815260040160405180910390fd5b600081604001511561087e57848460405161082792919061363c565b604051809103902082600001518051906020012014610872576040517fff6f228a00000000000000000000000000000000000000000000000000000000815260040160405180910390fd5b81602001519050610913565b6000600381111561089257610891612b43565b5b8360038111156108a5576108a4612b43565b5b141580156108d85750600160038111156108c2576108c1612b43565b5b8360038111156108d5576108d4612b43565b5b14155b1561090f576040517fb51fd1ed00000000000000000000000000000000000000000000000000000000815260040160405180910390fd5b8290505b6040518060a0016040528088888080601f016020809104026020016040519081016040528093929190818152602001838380828437600081840152601f19601f82011690508083019250505050505050815260200186868080601f016020809104026020016040519081016040528093929190818152602001838380828437600081840152601f19601f8201169050808301925050505050505081526020018260038111156109c5576109c4612b43565b5b81526020016001151581526020013373ffffffffffffffffffffffffffffffffffffffff16815250600160003373ffffffffffffffffffffffffffffffffffffffff1673ffffffffffffffffffffffffffffffffffffffff1681526020019081526020016000206000820151816000019081610a419190613801565b506020820151816001019081610a579190613801565b5060408201518160020160006101000a81548160ff02191690836003811115610a8357610a82612b43565b5b021790555060608201518160020160016101000a81548160ff02191690831515021790555060808201518160020160026101000a81548173ffffffffffffffffffffffffffffffffffffffff021916908373ffffffffffffffffffffffffffffffffffffffff1602179055509050503360038686604051610b059291906135f3565b908152602001604051809103902060006101000a81548173ffffffffffffffffffffffffffffffffffffffff021916908373ffffffffffffffffffffffffffffffffffffffff1602179055503373ffffffffffffffffffffffffffffffffffffffff167fc2e5d5da58bd71d1a2d14cdef02a4256d971b728088f8190d067ccfbae3bd73e888884604051610b9b93929190613900565b60405180910390a250505050505050565b600160003373ffffffffffffffffffffffffffffffffffffffff1673ffffffffffffffffffffffffffffffffffffffff16815260200190815260200160002060020160019054906101000a900460ff16610c32576040517f2163950f00000000000000000000000000000000000000000000000000000000815260040160405180910390fd5b60056040518060a0016040528088888080601f016020809104026020016040519081016040528093929190818152602001838380828437600081840152601f19601f82011690508083019250505050505050815260200186815260200185815260200142815260200184848080601f016020809104026020016040519081016040528093929190818152602001838380828437600081840152601f19601f8201169050808301925050505050505081525090806001815401808255809150506001900390600052602060002090600502016000909190919091506000820151816000019081610d219190613801565b506020820151816001015560408201518160020155606082015181600301556080820151816004019081610d559190613801565b505050837f5cf53fcec836c4ce0c5a0a6b7e70e3e6798e08652c1e7269bec8beba69927802878786604051610d8c93929190613932565b60405180910390a2505050505050565b60048181548110610dac57600080fd5b9060005260206000209060050201600091509050806000015490806001018054610dd590613592565b80601f0160208091040260200160405190810160405280929190818152602001828054610e0190613592565b8015610e4e5780601f10610e2357610100808354040283529160200191610e4e565b820191906000526020600020905b815481529060010190602001808311610e3157829003601f168201915b505050505090806002018054610e6390613592565b80601f0160208091040260200160405190810160405280929190818152602001828054610e8f90613592565b8015610edc5780601f10610eb157610100808354040283529160200191610edc565b820191906000526020600020905b815481529060010190602001808311610ebf57829003601f168201915b505050505090806003018054610ef190613592565b80601f0160208091040260200160405190810160405280929190818152602001828054610f1d90613592565b8015610f6a5780601f10610f3f57610100808354040283529160200191610f6a565b820191906000526020600020905b815481529060010190602001808311610f4d57829003601f168201915b5050505050908060040160009054906101000a900473ffffffffffffffffffffffffffffffffffffffff16908060040160149054906101000a900460ff16905086565b60008060009054906101000a900473ffffffffffffffffffffffffffffffffffffffff1673ffffffffffffffffffffffffffffffffffffffff163373ffffffffffffffffffffffffffffffffffffffff161490506000600160003373ffffffffffffffffffffffffffffffffffffffff1673ffffffffffffffffffffffffffffffffffffffff16815260200190815260200160002060020160019054906101000a900460ff1680156110d257506001600381111561106e5761106d612b43565b5b600160003373ffffffffffffffffffffffffffffffffffffffff1673ffffffffffffffffffffffffffffffffffffffff16815260200190815260200160002060020160009054906101000a900460ff1660038111156110d0576110cf612b43565b5b145b9050811580156110e0575080155b15611117576040517ffdc0f57000000000000000000000000000000000000000000000000000000000815260040160405180910390fd5b600073ffffffffffffffffffffffffffffffffffffffff168673ffffffffffffffffffffffffffffffffffffffff160361117d576040517fa5f90a1100000000000000000000000000000000000000000000000000000000815260040160405180910390fd5b600260008773ffffffffffffffffffffffffffffffffffffffff1673ffffffffffffffffffffffffffffffffffffffff16815260200190815260200160002060010160019054906101000a900460ff1615611204576040517f6d6d97d900000000000000000000000000000000000000000000000000000000815260040160405180910390fd5b600073ffffffffffffffffffffffffffffffffffffffff166003868660405161122e9291906135f3565b908152602001604051809103902060009054906101000a900473ffffffffffffffffffffffffffffffffffffffff1673ffffffffffffffffffffffffffffffffffffffff16146112aa576040517f8ec3431b00000000000000000000000000000000000000000000000000000000815260040160405180910390fd5b600085859050036112e7576040517f892bab0600000000000000000000000000000000000000000000000000000000815260040160405180910390fd5b604051806060016040528086868080601f016020809104026020016040519081016040528093929190818152602001838380828437600081840152601f19601f82011690508083019250505050505050815260200184600381111561134f5761134e612b43565b5b815260200160011515815250600260008873ffffffffffffffffffffffffffffffffffffffff1673ffffffffffffffffffffffffffffffffffffffff16815260200190815260200160002060008201518160000190816113af9190613801565b5060208201518160010160006101000a81548160ff021916908360038111156113db576113da612b43565b5b021790555060408201518160010160016101000a81548160ff02191690831515021790555090505085600386866040516114169291906135f3565b908152602001604051809103902060006101000a81548173ffffffffffffffffffffffffffffffffffffffff021916908373ffffffffffffffffffffffffffffffffffffffff1602179055508573ffffffffffffffffffffffffffffffffffffffff167f606806217cf8245b2ee7f2773128598ad38b448fc708ea35a286e14400b90df08686866040516114ac93929190613900565b60405180910390a2505050505050565b6060806000806000600160008773ffffffffffffffffffffffffffffffffffffffff1673ffffffffffffffffffffffffffffffffffffffff1681526020019081526020016000206040518060a001604052908160008201805461151e90613592565b80601f016020809104026020016040519081016040528092919081815260200182805461154a90613592565b80156115975780601f1061156c57610100808354040283529160200191611597565b820191906000526020600020905b81548152906001019060200180831161157a57829003601f168201915b505050505081526020016001820180546115b090613592565b80601f01602080910402602001604051908101604052809291908181526020018280546115dc90613592565b80156116295780601f106115fe57610100808354040283529160200191611629565b820191906000526020600020905b81548152906001019060200180831161160c57829003601f168201915b505050505081526020016002820160009054906101000a900460ff16600381111561165757611656612b43565b5b600381111561166957611668612b43565b5b81526020016002820160019054906101000a900460ff161515151581526020016002820160029054906101000a900473ffffffffffffffffffffffffffffffffffffffff1673ffffffffffffffffffffffffffffffffffffffff1673ffffffffffffffffffffffffffffffffffffffff1681525050905080600001518160200151826040015183606001519450945094509450509193509193565b60606005805480602002602001604051908101604052809291908181526020016000905b8282101561189c57838290600052602060002090600502016040518060a001604052908160008201805461175b90613592565b80601f016020809104026020016040519081016040528092919081815260200182805461178790613592565b80156117d45780601f106117a9576101008083540402835291602001916117d4565b820191906000526020600020905b8154815290600101906020018083116117b757829003601f168201915b5050505050815260200160018201548152602001600282015481526020016003820154815260200160048201805461180b90613592565b80601f016020809104026020016040519081016040528092919081815260200182805461183790613592565b80156118845780601f1061185957610100808354040283529160200191611884565b820191906000526020600020905b81548152906001019060200180831161186757829003601f168201915b50505050508152505081526020019060010190611728565b50505050905090565b600681815481106118b557600080fd5b90600052602060002090600402016000915090508060000160009054906101000a900473ffffffffffffffffffffffffffffffffffffffff16908060010154908060020154908060030154905084565b60008060009054906101000a900473ffffffffffffffffffffffffffffffffffffffff1673ffffffffffffffffffffffffffffffffffffffff163373ffffffffffffffffffffffffffffffffffffffff161490506000600160003373ffffffffffffffffffffffffffffffffffffffff1673ffffffffffffffffffffffffffffffffffffffff16815260200190815260200160002060020160019054906101000a900460ff168015611a2a5750600160038111156119c6576119c5612b43565b5b600160003373ffffffffffffffffffffffffffffffffffffffff1673ffffffffffffffffffffffffffffffffffffffff16815260200190815260200160002060020160009054906101000a900460ff166003811115611a2857611a27612b43565b5b145b905081158015611a38575080155b15611a6f576040517ffdc0f57000000000000000000000000000000000000000000000000000000000815260040160405180910390fd5b600260008473ffffffffffffffffffffffffffffffffffffffff1673ffffffffffffffffffffffffffffffffffffffff16815260200190815260200160002060010160019054906101000a900460ff16611af5576040517fc950bf9200000000000000000000000000000000000000000000000000000000815260040160405180910390fd5b600160008473ffffffffffffffffffffffffffffffffffffffff1673ffffffffffffffffffffffffffffffffffffffff16815260200190815260200160002060020160019054906101000a900460ff1615611b7c576040517f2b6f15f200000000000000000000000000000000000000000000000000000000815260040160405180910390fd5b6000600260008573ffffffffffffffffffffffffffffffffffffffff1673ffffffffffffffffffffffffffffffffffffffff1681526020019081526020016000206000018054611bcb90613592565b80601f0160208091040260200160405190810160405280929190818152602001828054611bf790613592565b8015611c445780601f10611c1957610100808354040283529160200191611c44565b820191906000526020600020905b815481529060010190602001808311611c2757829003601f168201915b50505050509050600381604051611c5b9190613995565b908152602001604051809103902060006101000a81549073ffffffffffffffffffffffffffffffffffffffff0219169055600260008573ffffffffffffffffffffffffffffffffffffffff1673ffffffffffffffffffffffffffffffffffffffff16815260200190815260200160002060008082016000611cdc91906129b7565b6001820160006101000a81549060ff02191690556001820160016101000a81549060ff021916905550508373ffffffffffffffffffffffffffffffffffffffff167f6992bbc23db476215da1784b9d23ea411ef075a1b1a3fc90268f4f35d6d344ab60405160405180910390a250505050565b600160003373ffffffffffffffffffffffffffffffffffffffff1673ffffffffffffffffffffffffffffffffffffffff16815260200190815260200160002060020160019054906101000a900460ff16611dd5576040517f2163950f00000000000000000000000000000000000000000000000000000000815260040160405180910390fd5b600660405180608001604052803373ffffffffffffffffffffffffffffffffffffffff16815260200184815260200183815260200142815250908060018154018082558091505060019003906000526020600020906004020160009091909190915060008201518160000160006101000a81548173ffffffffffffffffffffffffffffffffffffffff021916908373ffffffffffffffffffffffffffffffffffffffff1602179055506020820151816001015560408201518160020155606082015181600301555050813373ffffffffffffffffffffffffffffffffffffffff167fc7929e29f8ebf7416699defc7dd7989c0e1615e849898bab3cef375bf2a0789c83604051611ee5919061342c565b60405180910390a35050565b60058181548110611f0157600080fd5b9060005260206000209060050201600091509050806000018054611f2490613592565b80601f0160208091040260200160405190810160405280929190818152602001828054611f5090613592565b8015611f9d5780601f10611f7257610100808354040283529160200191611f9d565b820191906000526020600020905b815481529060010190602001808311611f8057829003601f168201915b505050505090806001015490806002015490806003015490806004018054611fc490613592565b80601f0160208091040260200160405190810160405280929190818152602001828054611ff090613592565b801561203d5780601f106120125761010080835404028352916020019161203d565b820191906000526020600020905b81548152906001019060200180831161202057829003601f168201915b5050505050905085565b6003818051602081018201805184825260208301602085012081835280955050505050506000915054906101000a900473ffffffffffffffffffffffffffffffffffffffff1681565b60016020528060005260406000206000915090508060000180546120b390613592565b80601f01602080910402602001604051908101604052809291908181526020018280546120df90613592565b801561212c5780601f106121015761010080835404028352916020019161212c565b820191906000526020600020905b81548152906001019060200180831161210f57829003601f168201915b50505050509080600101805461214190613592565b80601f016020809104026020016040519081016040528092919081815260200182805461216d90613592565b80156121ba5780601f1061218f576101008083540402835291602001916121ba565b820191906000526020600020905b81548152906001019060200180831161219d57829003601f168201915b5050505050908060020160009054906101000a900460ff16908060020160019054906101000a900460ff16908060020160029054906101000a900473ffffffffffffffffffffffffffffffffffffffff16905085565b6000600480549050905090565b60008054906101000a900473ffffffffffffffffffffffffffffffffffffffff1681565b600160003373ffffffffffffffffffffffffffffffffffffffff1673ffffffffffffffffffffffffffffffffffffffff16815260200190815260200160002060020160019054906101000a900460ff1615806123115750600160038111156122ac576122ab612b43565b5b600160003373ffffffffffffffffffffffffffffffffffffffff1673ffffffffffffffffffffffffffffffffffffffff16815260200190815260200160002060020160009054906101000a900460ff16600381111561230e5761230d612b43565b5b14155b15612348576040517f8eef6a6e00000000000000000000000000000000000000000000000000000000815260040160405180910390fd5b6000600480549050905060046040518060c0016040528083815260200189898080601f016020809104026020016040519081016040528093929190818152602001838380828437600081840152601f19601f82011690508083019250505050505050815260200187878080601f016020809104026020016040519081016040528093929190818152602001838380828437600081840152601f19601f82011690508083019250505050505050815260200185858080601f016020809104026020016040519081016040528093929190818152602001838380828437600081840152601f19601f8201169050808301925050505050505081526020013373ffffffffffffffffffffffffffffffffffffffff1681526020016001151581525090806001815401808255809150506001900390600052602060002090600502016000909190919091506000820151816000015560208201518160010190816124ae9190613801565b5060408201518160020190816124c49190613801565b5060608201518160030190816124da9190613801565b5060808201518160040160006101000a81548173ffffffffffffffffffffffffffffffffffffffff021916908373ffffffffffffffffffffffffffffffffffffffff16021790555060a08201518160040160146101000a81548160ff0219169083151502179055505050807f519ba79f0472b321aec92d33c8f5a8419aa8bad3a3dd189d3591b214981270cf868633604051612578939291906139ac565b60405180910390a250505050505050565b60606000806000600260008673ffffffffffffffffffffffffffffffffffffffff1673ffffffffffffffffffffffffffffffffffffffff1681526020019081526020016000206040518060600160405290816000820180546125ea90613592565b80601f016020809104026020016040519081016040528092919081815260200182805461261690613592565b80156126635780601f1061263857610100808354040283529160200191612663565b820191906000526020600020905b81548152906001019060200180831161264657829003601f168201915b505050505081526020016001820160009054906101000a900460ff16600381111561269157612690612b43565b5b60038111156126a3576126a2612b43565b5b81526020016001820160019054906101000a900460ff1615151515815250509050806000015181602001518260400151935093509350509193909250565b6000606080606060006004805490508610612728576040517f467e4f7e00000000000000000000000000000000000000000000000000000000815260040160405180910390fd5b60006004878154811061273e5761273d6139de565b5b90600052602060002090600502016040518060c00160405290816000820154815260200160018201805461277190613592565b80601f016020809104026020016040519081016040528092919081815260200182805461279d90613592565b80156127ea5780601f106127bf576101008083540402835291602001916127ea565b820191906000526020600020905b8154815290600101906020018083116127cd57829003601f168201915b5050505050815260200160028201805461280390613592565b80601f016020809104026020016040519081016040528092919081815260200182805461282f90613592565b801561287c5780601f106128515761010080835404028352916020019161287c565b820191906000526020600020905b81548152906001019060200180831161285f57829003601f168201915b5050505050815260200160038201805461289590613592565b80601f01602080910402602001604051908101604052809291908181526020018280546128c190613592565b801561290e5780601f106128e35761010080835404028352916020019161290e565b820191906000526020600020905b8154815290600101906020018083116128f157829003601f168201915b505050505081526020016004820160009054906101000a900473ffffffffffffffffffffffffffffffffffffffff1673ffffffffffffffffffffffffffffffffffffffff1673ffffffffffffffffffffffffffffffffffffffff1681526020016004820160149054906101000a900460ff161515151581525050905080600001518160200151826040015183606001518460a00151955095509550955095505091939590929450565b5080546129c390613592565b6000825580601f106129d557506129f4565b601f0160209004906000526020600020908101906129f391906129f7565b5b50565b5b80821115612a105760008160009055506001016129f8565b5090565b6000604051905090565b600080fd5b600080fd5b600073ffffffffffffffffffffffffffffffffffffffff82169050919050565b6000612a5382612a28565b9050919050565b612a6381612a48565b8114612a6e57600080fd5b50565b600081359050612a8081612a5a565b92915050565b600060208284031215612a9c57612a9b612a1e565b5b6000612aaa84828501612a71565b91505092915050565b600081519050919050565b600082825260208201905092915050565b60005b83811015612aed578082015181840152602081019050612ad2565b60008484015250505050565b6000601f19601f8301169050919050565b6000612b1582612ab3565b612b1f8185612abe565b9350612b2f818560208601612acf565b612b3881612af9565b840191505092915050565b7f4e487b7100000000000000000000000000000000000000000000000000000000600052602160045260246000fd5b60048110612b8357612b82612b43565b5b50565b6000819050612b9482612b72565b919050565b6000612ba482612b86565b9050919050565b612bb481612b99565b82525050565b60008115159050919050565b612bcf81612bba565b82525050565b60006060820190508181036000830152612bef8186612b0a565b9050612bfe6020830185612bab565b612c0b6040830184612bc6565b949350505050565b600080fd5b600080fd5b600080fd5b60008083601f840112612c3857612c37612c13565b5b8235905067ffffffffffffffff811115612c5557612c54612c18565b5b602083019150836001820283011115612c7157612c70612c1d565b5b9250929050565b60048110612c8557600080fd5b50565b600081359050612c9781612c78565b92915050565b600080600080600060608688031215612cb957612cb8612a1e565b5b600086013567ffffffffffffffff811115612cd757612cd6612a23565b5b612ce388828901612c22565b9550955050602086013567ffffffffffffffff811115612d0657612d05612a23565b5b612d1288828901612c22565b93509350506040612d2588828901612c88565b9150509295509295909350565b6000819050919050565b612d4581612d32565b8114612d5057600080fd5b50565b600081359050612d6281612d3c565b92915050565b60008060008060008060808789031215612d8557612d84612a1e565b5b600087013567ffffffffffffffff811115612da357612da2612a23565b5b612daf89828a01612c22565b96509650506020612dc289828a01612d53565b9450506040612dd389828a01612d53565b935050606087013567ffffffffffffffff811115612df457612df3612a23565b5b612e0089828a01612c22565b92509250509295509295509295565b600060208284031215612e2557612e24612a1e565b5b6000612e3384828501612d53565b91505092915050565b612e4581612d32565b82525050565b612e5481612a48565b82525050565b600060c082019050612e6f6000830189612e3c565b8181036020830152612e818188612b0a565b90508181036040830152612e958187612b0a565b90508181036060830152612ea98186612b0a565b9050612eb86080830185612e4b565b612ec560a0830184612bc6565b979650505050505050565b60008060008060608587031215612eea57612ee9612a1e565b5b6000612ef887828801612a71565b945050602085013567ffffffffffffffff811115612f1957612f18612a23565b5b612f2587828801612c22565b93509350506040612f3887828801612c88565b91505092959194509250565b60006080820190508181036000830152612f5e8187612b0a565b90508181036020830152612f728186612b0a565b9050612f816040830185612bab565b612f8e6060830184612bc6565b95945050505050565b600081519050919050565b600082825260208201905092915050565b6000819050602082019050919050565b600082825260208201905092915050565b6000612fdf82612ab3565b612fe98185612fc3565b9350612ff9818560208601612acf565b61300281612af9565b840191505092915050565b61301681612d32565b82525050565b600060a08301600083015184820360008601526130398282612fd4565b915050602083015161304e602086018261300d565b506040830151613061604086018261300d565b506060830151613074606086018261300d565b506080830151848203608086015261308c8282612fd4565b9150508091505092915050565b60006130a5838361301c565b905092915050565b6000602082019050919050565b60006130c582612f97565b6130cf8185612fa2565b9350836020820285016130e185612fb3565b8060005b8581101561311d57848403895281516130fe8582613099565b9450613109836130ad565b925060208a019950506001810190506130e5565b50829750879550505050505092915050565b6000602082019050818103600083015261314981846130ba565b905092915050565b60006080820190506131666000830187612e4b565b6131736020830186612e3c565b6131806040830185612e3c565b61318d6060830184612e3c565b95945050505050565b600080604083850312156131ad576131ac612a1e565b5b60006131bb85828601612d53565b92505060206131cc85828601612d53565b9150509250929050565b600060a08201905081810360008301526131f08188612b0a565b90506131ff6020830187612e3c565b61320c6040830186612e3c565b6132196060830185612e3c565b818103608083015261322b8184612b0a565b90509695505050505050565b600080fd5b7f4e487b7100000000000000000000000000000000000000000000000000000000600052604160045260246000fd5b61327482612af9565b810181811067ffffffffffffffff821117156132935761329261323c565b5b80604052505050565b60006132a6612a14565b90506132b2828261326b565b919050565b600067ffffffffffffffff8211156132d2576132d161323c565b5b6132db82612af9565b9050602081019050919050565b82818337600083830152505050565b600061330a613305846132b7565b61329c565b90508281526020810184848401111561332657613325613237565b5b6133318482856132e8565b509392505050565b600082601f83011261334e5761334d612c13565b5b813561335e8482602086016132f7565b91505092915050565b60006020828403121561337d5761337c612a1e565b5b600082013567ffffffffffffffff81111561339b5761339a612a23565b5b6133a784828501613339565b91505092915050565b60006020820190506133c56000830184612e4b565b92915050565b600060a08201905081810360008301526133e58188612b0a565b905081810360208301526133f98187612b0a565b90506134086040830186612bab565b6134156060830185612bc6565b6134226080830184612e4b565b9695505050505050565b60006020820190506134416000830184612e3c565b92915050565b6000806000806000806060878903121561346457613463612a1e565b5b600087013567ffffffffffffffff81111561348257613481612a23565b5b61348e89828a01612c22565b9650965050602087013567ffffffffffffffff8111156134b1576134b0612a23565b5b6134bd89828a01612c22565b9450945050604087013567ffffffffffffffff8111156134e0576134df612a23565b5b6134ec89828a01612c22565b92509250509295509295509295565b600060a0820190506135106000830188612e3c565b81810360208301526135228187612b0a565b905081810360408301526135368186612b0a565b9050818103606083015261354a8185612b0a565b90506135596080830184612bc6565b9695505050505050565b7f4e487b7100000000000000000000000000000000000000000000000000000000600052602260045260246000fd5b600060028204905060018216806135aa57607f821691505b6020821081036135bd576135bc613563565b5b50919050565b600081905092915050565b60006135da83856135c3565b93506135e78385846132e8565b82840190509392505050565b60006136008284866135ce565b91508190509392505050565b600081905092915050565b6000613623838561360c565b93506136308385846132e8565b82840190509392505050565b6000613649828486613617565b91508190509392505050565b60008190508160005260206000209050919050565b60006020601f8301049050919050565b600082821b905092915050565b6000600883026136b77fffffffffffffffffffffffffffffffffffffffffffffffffffffffffffffffff8261367a565b6136c1868361367a565b95508019841693508086168417925050509392505050565b6000819050919050565b60006136fe6136f96136f484612d32565b6136d9565b612d32565b9050919050565b6000819050919050565b613718836136e3565b61372c61372482613705565b848454613687565b825550505050565b600090565b613741613734565b61374c81848461370f565b505050565b5b8181101561377057613765600082613739565b600181019050613752565b5050565b601f8211156137b55761378681613655565b61378f8461366a565b8101602085101561379e578190505b6137b26137aa8561366a565b830182613751565b50505b505050565b600082821c905092915050565b60006137d8600019846008026137ba565b1980831691505092915050565b60006137f183836137c7565b9150826002028217905092915050565b61380a82612ab3565b67ffffffffffffffff8111156138235761382261323c565b5b61382d8254613592565b613838828285613774565b600060209050601f83116001811461386b5760008415613859578287015190505b61386385826137e5565b8655506138cb565b601f19841661387986613655565b60005b828110156138a15784890151825560018201915060208501945060208101905061387c565b868310156138be57848901516138ba601f8916826137c7565b8355505b6001600288020188555050505b505050505050565b60006138df8385612abe565b93506138ec8385846132e8565b6138f583612af9565b840190509392505050565b6000604082019050818103600083015261391b8185876138d3565b905061392a6020830184612bab565b949350505050565b6000604082019050818103600083015261394d8185876138d3565b905061395c6020830184612e3c565b949350505050565b600061396f82612ab3565b61397981856135c3565b9350613989818560208601612acf565b80840191505092915050565b60006139a18284613964565b915081905092915050565b600060408201905081810360008301526139c78185876138d3565b90506139d66020830184612e4b565b949350505050565b7f4e487b7100000000000000000000000000000000000000000000000000000000600052603260045260246000fdfea2646970667358221220811c32d674dba4a6fa14f421e2d1be317bb63bdbb7fe08df8d5c2acffbc4c6e364736f6c63430008130033",
  "linkReferences": {},
  "deployedLinkReferences": {}
}