{
  "_format": "hh-sol-artifact-1",
  "contractName": "FraudLog",
  "sourceName": "contracts/FraudLog.sol",
  "abi": [
    {
      "inputs": [
        {
          "internalType": "address",
          "name": "_logger",
          "type": "address"
        },
        {
          "internalType": "string",
          "name": "_initialVersion",
          "type": "string"
        }
      ],
      "stateMutability": "nonpayable",
      "type": "constructor"
    },
    {
      "anonymous": false,
      "inputs": [
        {
          "indexed": true,
          "internalType": "bytes32",
          "name": "studentHash",
          "type": "bytes32"
        },
        {
          "indexed": false,
          "internalType": "uint256",
          "name": "fraudScore",
          "type": "uint256"
        },
        {
          "indexed": true,
          "internalType": "bytes32",
          "name": "eventHash",
          "type": "bytes32"
        },
        {
          "indexed": false,
          "internalType": "uint256",
          "name": "timestamp",
          "type": "uint256"
        },
        {
          "indexed": false,
          "internalType": "string",
          "name": "modelVersion",
          "type": "string"
        }
      ],
      "name": "FraudLogged",
      "type": "event"
    },
    {
      "anonymous": false,
      "inputs": [
        {
          "indexed": false,
          "internalType": "string",
          "name": "newVersion",
          "type": "string"
        },
        {
          "indexed": false,
          "internalType": "address",
          "name": "updatedBy",
          "type": "address"
        },
        {
          "indexed": false,
          "internalType": "uint256",
          "name": "updatedAt",
          "type": "uint256"
        }
      ],
      "name": "ModelUpdated",
      "type": "event"
    },
    {
      "inputs": [
        {
          "internalType": "uint256",
          "name": "",
          "type": "uint256"
        }
      ],
      "name": "allEventHashes",
      "outputs": [
        {
          "internalType": "bytes32",
          "name": "",
          "type": "bytes32"
        }
      ],
      "stateMutability": "view",
      "type": "function"
    },
    {
      "inputs": [],
      "name": "authorisedLogger",
      "outputs": [
        {
          "internalType": "address",
          "name": "",
          "type": "address"
        }
      ],
      "stateMutability": "view",
      "type": "function"
    },
    {
      "inputs": [],
      "name": "currentModelVersion",
      "outputs": [
        {
          "internalType": "string",
          "name": "",
          "type": "string"
        }
      ],
      "stateMutability": "view",
      "type": "function"
    },
    {
      "inputs": [
        {
          "internalType": "bytes32",
          "name": "eventHash",
          "type": "bytes32"
        }
      ],
      "name": "getEventDetails",
      "outputs": [
        {
          "components": [
            {
              "internalType": "bytes32",
              "name": "studentHash",
              "type": "bytes32"
            },
            {
              "internalType": "uint256",
              "name": "fraudScore",
              "type": "uint256"
            },
            {
              "internalType": "bytes32",
              "name": "eventHash",
              "type": "bytes32"
            },
            {
              "internalType": "uint256",
              "name": "timestamp",
              "type": "uint256"
            },
            {
              "internalType": "string",
              "name": "modelVersion",
              "type": "string"
            },
            {
              "internalType": "bool",
              "name": "exists",
              "type": "bool"
            }
          ],
          "internalType": "struct FraudLog.FraudEvent",
          "name": "",
          "type": "tuple"
        }
      ],
      "stateMutability": "view",
      "type": "function"
    },
    {
      "inputs": [
        {
          "internalType": "bytes32",
          "name": "studentHash",
          "type": "bytes32"
        }
      ],
      "name": "getFraudEvents",
      "outputs": [
        {
          "internalType": "bytes32[]",
          "name": "",
          "type": "bytes32[]"
        }
      ],
      "stateMutability": "view",
      "type": "function"
    },
    {
      "inputs": [
        {
          "internalType": "bytes32",
          "name": "studentHash",
          "type": "bytes32"
        },
        {
          "internalType": "uint256",
          "name": "fraudScore",
          "type": "uint256"
        },
        {
          "internalType": "bytes32",
          "name": "eventHash",
          "type": "bytes32"
        }
      ],
      "name": "logFraudEvent",
      "outputs": [],
      "stateMutability": "nonpayable",
      "type": "function"
    },
    {
      "inputs": [],
      "name": "modelUpdatedAt",
      "outputs": [
        {
          "internalType": "uint256",
          "name": "",
          "type": "uint256"
        }
      ],
      "stateMutability": "view",
      "type": "function"
    },
    {
      "inputs": [],
      "name": "owner",
      "outputs": [
        {
          "internalType": "address",
          "name": "",
          "type": "address"
        }
      ],
      "stateMutability": "view",
      "type": "function"
    },
    {
      "inputs": [
        {
          "internalType": "address",
          "name": "_newLogger",
          "type": "address"
        }
      ],
      "name": "setAuthorisedLogger",
      "outputs": [],
      "stateMutability": "nonpayable",
      "type": "function"
    },
    {
      "inputs": [],
      "name": "totalEvents",
      "outputs": [
        {
          "internalType": "uint256",
          "name": "",
          "type": "uint256"
        }
      ],
      "stateMutability": "view",
      "type": "function"
    },
    {
      "inputs": [
        {
          "internalType": "string",
          "name": "newVersion",
          "type": "string"
        }
      ],
      "name": "updateModelVersion",
      "outputs": [],
      "stateMutability": "nonpayable",
      "type": "function"
    },
    {
      "inputs": [
        {
          "internalType": "bytes32",
          "name": "eventHash",
          "type": "bytes32"
        }
      ],
      "name": "verifyEvent",
      "outputs": [
        {
          "internalType": "bool",
          "name": "verified",
          "type": "bool"
        },
        {
          "internalType": "uint256",
          "name": "fraudScore",
          "type": "uint256"
        },
        {
          "internalType": "uint256",
          "name": "timestamp",
          "type": "uint256"
        },
        {
          "internalType": "string",
          "name": "version",
          "type": "string"
        }
      ],
      "stateMutability": "view",
      "type": "function"
    }
  ],
  "bytecode": "0x60806040523480156200001157600080fd5b506040516200212b3803806200212b8339818101604052810190620000379190620002d1565b336000806101000a81548173ffffffffffffffffffffffffffffffffffffffff021916908373ffffffffffffffffffffffffffffffffffffffff16021790555081600160006101000a81548173ffffffffffffffffffffffffffffffffffffffff021916908373ffffffffffffffffffffffffffffffffffffffff1602179055508060029081620000c9919062000582565b5042600381905550505062000669565b6000604051905090565b600080fd5b600080fd5b600073ffffffffffffffffffffffffffffffffffffffff82169050919050565b60006200011a82620000ed565b9050919050565b6200012c816200010d565b81146200013857600080fd5b50565b6000815190506200014c8162000121565b92915050565b600080fd5b600080fd5b6000601f19601f8301169050919050565b7f4e487b7100000000000000000000000000000000000000000000000000000000600052604160045260246000fd5b620001a7826200015c565b810181811067ffffffffffffffff82111715620001c957620001c86200016d565b5b80604052505050565b6000620001de620000d9565b9050620001ec82826200019c565b919050565b600067ffffffffffffffff8211156200020f576200020e6200016d565b5b6200021a826200015c565b9050602081019050919050565b60005b83811015620002475780820151818401526020810190506200022a565b60008484015250505050565b60006200026a6200026484620001f1565b620001d2565b90508281526020810184848401111562000289576200028862000157565b5b6200029684828562000227565b509392505050565b600082601f830112620002b657620002b562000152565b5b8151620002c884826020860162000253565b91505092915050565b60008060408385031215620002eb57620002ea620000e3565b5b6000620002fb858286016200013b565b925050602083015167ffffffffffffffff8111156200031f576200031e620000e8565b5b6200032d858286016200029e565b9150509250929050565b600081519050919050565b7f4e487b7100000000000000000000000000000000000000000000000000000000600052602260045260246000fd5b600060028204905060018216806200038a57607f821691505b602082108103620003a0576200039f62000342565b5b50919050565b60008190508160005260206000209050919050565b60006020601f8301049050919050565b600082821b905092915050565b6000600883026200040a7fffffffffffffffffffffffffffffffffffffffffffffffffffffffffffffffff82620003cb565b620004168683620003cb565b95508019841693508086168417925050509392505050565b6000819050919050565b6000819050919050565b6000620004636200045d62000457846200042e565b62000438565b6200042e565b9050919050565b6000819050919050565b6200047f8362000442565b620004976200048e826200046a565b848454620003d8565b825550505050565b600090565b620004ae6200049f565b620004bb81848462000474565b505050565b5b81811015620004e357620004d7600082620004a4565b600181019050620004c1565b5050565b601f8211156200053257620004fc81620003a6565b6200050784620003bb565b8101602085101562000517578190505b6200052f6200052685620003bb565b830182620004c0565b50505b505050565b600082821c905092915050565b6000620005576000198460080262000537565b1980831691505092915050565b600062000572838362000544565b9150826002028217905092915050565b6200058d8262000337565b67ffffffffffffffff811115620005a957620005a86200016d565b5b620005b5825462000371565b620005c2828285620004e7565b600060209050601f831160018114620005fa5760008415620005e5578287015190505b620005f1858262000564565b86555062000661565b601f1984166200060a86620003a6565b60005b8281101562000634578489015182556001820191506020850194506020810190506200060d565b8683101562000654578489015162000650601f89168262000544565b8355505b6001600288020188555050505b505050505050565b611ab280620006796000396000f3fe608060405234801561001057600080fd5b50600436106100b45760003560e01c80637397e6a0116100715780637397e6a0146101a25780637f06e28e146101d25780638da5cb5b146101f0578063ba8706861461020e578063fa4ef0101461022c578063ffe51b401461024a576100b4565b8063103191dd146100b95780632ca10898146100d55780633c387532146101055780634007013a1461013557806345b5e710146101515780635331fb0714610184575b600080fd5b6100d360048036038101906100ce9190610cc1565b610266565b005b6100ef60048036038101906100ea9190610d44565b610396565b6040516100fc9190610ecd565b60405180910390f35b61011f600480360381019061011a9190610f1b565b6104fb565b60405161012c9190610f57565b60405180910390f35b61014f600480360381019061014a9190610f72565b61051f565b005b61016b60048036038101906101669190610d44565b610831565b60405161017b949392919061102d565b60405180910390f35b61018c61097d565b6040516101999190611079565b60405180910390f35b6101bc60048036038101906101b79190610d44565b610983565b6040516101c99190611143565b60405180910390f35b6101da6109ee565b6040516101e791906111a6565b60405180910390f35b6101f8610a14565b60405161020591906111a6565b60405180910390f35b610216610a38565b6040516102239190611079565b60405180910390f35b610234610a45565b60405161024191906111c1565b60405180910390f35b610264600480360381019061025f919061120f565b610ad3565b005b600160009054906101000a900473ffffffffffffffffffffffffffffffffffffffff1673ffffffffffffffffffffffffffffffffffffffff163373ffffffffffffffffffffffffffffffffffffffff16146102f6576040517f08c379a00000000000000000000000000000000000000000000000000000000081526004016102ed906112ae565b60405180910390fd5b6000828290501161033c576040517f08c379a00000000000000000000000000000000000000000000000000000000081526004016103339061131a565b60405180910390fd5b81816002918261034d929190611580565b50426003819055507f537207658a26eea5906cf58cbc07bd510978b993ef0688b93883139391ed0a7c8282334260405161038a949392919061168c565b60405180910390a15050565b61039e610c14565b6004600083815260200190815260200160002060050160009054906101000a900460ff16610401576040517f08c379a00000000000000000000000000000000000000000000000000000000081526004016103f890611718565b60405180910390fd5b600460008381526020019081526020016000206040518060c001604052908160008201548152602001600182015481526020016002820154815260200160038201548152602001600482018054610457906113a3565b80601f0160208091040260200160405190810160405280929190818152602001828054610483906113a3565b80156104d05780601f106104a5576101008083540402835291602001916104d0565b820191906000526020600020905b8154815290600101906020018083116104b357829003601f168201915b505050505081526020016005820160009054906101000a900460ff1615151515815250509050919050565b6006818154811061050b57600080fd5b906000526020600020016000915090505481565b600160009054906101000a900473ffffffffffffffffffffffffffffffffffffffff1673ffffffffffffffffffffffffffffffffffffffff163373ffffffffffffffffffffffffffffffffffffffff16146105af576040517f08c379a00000000000000000000000000000000000000000000000000000000081526004016105a6906112ae565b60405180910390fd5b60648211156105f3576040517f08c379a00000000000000000000000000000000000000000000000000000000081526004016105ea90611784565b60405180910390fd5b6004600082815260200190815260200160002060050160009054906101000a900460ff1615610657576040517f08c379a000000000000000000000000000000000000000000000000000000000815260040161064e906117f0565b60405180910390fd5b60006040518060c0016040528085815260200184815260200183815260200142815260200160028054610689906113a3565b80601f01602080910402602001604051908101604052809291908181526020018280546106b5906113a3565b80156107025780601f106106d757610100808354040283529160200191610702565b820191906000526020600020905b8154815290600101906020018083116106e557829003601f168201915b5050505050815260200160011515815250905080600460008481526020019081526020016000206000820151816000015560208201518160010155604082015181600201556060820151816003015560808201518160040190816107669190611810565b5060a08201518160050160006101000a81548160ff02191690831515021790555090505060056000858152602001908152602001600020829080600181540180825580915050600190039060005260206000200160009091909190915055600682908060018154018082558091505060019003906000526020600020016000909190919091505581847f7e90d4bb0d1be57ad5e4800da798b35fd010af3bbd6ea991a7e05df00eb6fc918542600260405161082393929190611966565b60405180910390a350505050565b600080600060606000600460008781526020019081526020016000206040518060c001604052908160008201548152602001600182015481526020016002820154815260200160038201548152602001600482018054610890906113a3565b80601f01602080910402602001604051908101604052809291908181526020018280546108bc906113a3565b80156109095780601f106108de57610100808354040283529160200191610909565b820191906000526020600020905b8154815290600101906020018083116108ec57829003601f168201915b505050505081526020016005820160009054906101000a900460ff16151515158152505090508060a0015161095b57600080600060405180602001604052806000815250945094509450945050610976565b60018160200151826060015183608001519450945094509450505b9193509193565b60035481565b6060600560008381526020019081526020016000208054806020026020016040519081016040528092919081815260200182805480156109e257602002820191906000526020600020905b8154815260200190600101908083116109ce575b50505050509050919050565b600160009054906101000a900473ffffffffffffffffffffffffffffffffffffffff1681565b60008054906101000a900473ffffffffffffffffffffffffffffffffffffffff1681565b6000600680549050905090565b60028054610a52906113a3565b80601f0160208091040260200160405190810160405280929190818152602001828054610a7e906113a3565b8015610acb5780601f10610aa057610100808354040283529160200191610acb565b820191906000526020600020905b815481529060010190602001808311610aae57829003601f168201915b505050505081565b60008054906101000a900473ffffffffffffffffffffffffffffffffffffffff1673ffffffffffffffffffffffffffffffffffffffff163373ffffffffffffffffffffffffffffffffffffffff1614610b61576040517f08c379a0000000000000000000000000000000000000000000000000000000008152600401610b58906119f0565b60405180910390fd5b600073ffffffffffffffffffffffffffffffffffffffff168173ffffffffffffffffffffffffffffffffffffffff1603610bd0576040517f08c379a0000000000000000000000000000000000000000000000000000000008152600401610bc790611a5c565b60405180910390fd5b80600160006101000a81548173ffffffffffffffffffffffffffffffffffffffff021916908373ffffffffffffffffffffffffffffffffffffffff16021790555050565b6040518060c0016040528060008019168152602001600081526020016000801916815260200160008152602001606081526020016000151581525090565b600080fd5b600080fd5b600080fd5b600080fd5b600080fd5b60008083601f840112610c8157610c80610c5c565b5b8235905067ffffffffffffffff811115610c9e57610c9d610c61565b5b602083019150836001820283011115610cba57610cb9610c66565b5b9250929050565b60008060208385031215610cd857610cd7610c52565b5b600083013567ffffffffffffffff811115610cf657610cf5610c57565b5b610d0285828601610c6b565b92509250509250929050565b6000819050919050565b610d2181610d0e565b8114610d2c57600080fd5b50565b600081359050610d3e81610d18565b92915050565b600060208284031215610d5a57610d59610c52565b5b6000610d6884828501610d2f565b91505092915050565b610d7a81610d0e565b82525050565b6000819050919050565b610d9381610d80565b82525050565b600081519050919050565b600082825260208201905092915050565b60005b83811015610dd3578082015181840152602081019050610db8565b60008484015250505050565b6000601f19601f8301169050919050565b6000610dfb82610d99565b610e058185610da4565b9350610e15818560208601610db5565b610e1e81610ddf565b840191505092915050565b60008115159050919050565b610e3e81610e29565b82525050565b600060c083016000830151610e5c6000860182610d71565b506020830151610e6f6020860182610d8a565b506040830151610e826040860182610d71565b506060830151610e956060860182610d8a565b5060808301518482036080860152610ead8282610df0565b91505060a0830151610ec260a0860182610e35565b508091505092915050565b60006020820190508181036000830152610ee78184610e44565b905092915050565b610ef881610d80565b8114610f0357600080fd5b50565b600081359050610f1581610eef565b92915050565b600060208284031215610f3157610f30610c52565b5b6000610f3f84828501610f06565b91505092915050565b610f5181610d0e565b82525050565b6000602082019050610f6c6000830184610f48565b92915050565b600080600060608486031215610f8b57610f8a610c52565b5b6000610f9986828701610d2f565b9350506020610faa86828701610f06565b9250506040610fbb86828701610d2f565b9150509250925092565b610fce81610e29565b82525050565b610fdd81610d80565b82525050565b600082825260208201905092915050565b6000610fff82610d99565b6110098185610fe3565b9350611019818560208601610db5565b61102281610ddf565b840191505092915050565b60006080820190506110426000830187610fc5565b61104f6020830186610fd4565b61105c6040830185610fd4565b818103606083015261106e8184610ff4565b905095945050505050565b600060208201905061108e6000830184610fd4565b92915050565b600081519050919050565b600082825260208201905092915050565b6000819050602082019050919050565b60006110cc8383610d71565b60208301905092915050565b6000602082019050919050565b60006110f082611094565b6110fa818561109f565b9350611105836110b0565b8060005b8381101561113657815161111d88826110c0565b9750611128836110d8565b925050600181019050611109565b5085935050505092915050565b6000602082019050818103600083015261115d81846110e5565b905092915050565b600073ffffffffffffffffffffffffffffffffffffffff82169050919050565b600061119082611165565b9050919050565b6111a081611185565b82525050565b60006020820190506111bb6000830184611197565b92915050565b600060208201905081810360008301526111db8184610ff4565b905092915050565b6111ec81611185565b81146111f757600080fd5b50565b600081359050611209816111e3565b92915050565b60006020828403121561122557611224610c52565b5b6000611233848285016111fa565b91505092915050565b7f46726175644c6f673a2063616c6c6572206973206e6f7420617574686f72697360008201527f6564206c6f676765720000000000000000000000000000000000000000000000602082015250565b6000611298602983610fe3565b91506112a38261123c565b604082019050919050565b600060208201905081810360008301526112c78161128b565b9050919050565b7f46726175644c6f673a20656d7074792076657273696f6e20737472696e670000600082015250565b6000611304601e83610fe3565b915061130f826112ce565b602082019050919050565b60006020820190508181036000830152611333816112f7565b9050919050565b600082905092915050565b7f4e487b7100000000000000000000000000000000000000000000000000000000600052604160045260246000fd5b7f4e487b7100000000000000000000000000000000000000000000000000000000600052602260045260246000fd5b600060028204905060018216806113bb57607f821691505b6020821081036113ce576113cd611374565b5b50919050565b60008190508160005260206000209050919050565b60006020601f8301049050919050565b600082821b905092915050565b6000600883026114367fffffffffffffffffffffffffffffffffffffffffffffffffffffffffffffffff826113f9565b61144086836113f9565b95508019841693508086168417925050509392505050565b6000819050919050565b600061147d61147861147384610d80565b611458565b610d80565b9050919050565b6000819050919050565b61149783611462565b6114ab6114a382611484565b848454611406565b825550505050565b600090565b6114c06114b3565b6114cb81848461148e565b505050565b5b818110156114ef576114e46000826114b8565b6001810190506114d1565b5050565b601f82111561153457611505816113d4565b61150e846113e9565b8101602085101561151d578190505b611531611529856113e9565b8301826114d0565b50505b505050565b600082821c905092915050565b600061155760001984600802611539565b1980831691505092915050565b60006115708383611546565b9150826002028217905092915050565b61158a838361133a565b67ffffffffffffffff8111156115a3576115a2611345565b5b6115ad82546113a3565b6115b88282856114f3565b6000601f8311600181146115e757600084156115d5578287013590505b6115df8582611564565b865550611647565b601f1984166115f5866113d4565b60005b8281101561161d578489013582556001820191506020850194506020810190506115f8565b8683101561163a5784890135611636601f891682611546565b8355505b6001600288020188555050505b50505050505050565b82818337600083830152505050565b600061166b8385610fe3565b9350611678838584611650565b61168183610ddf565b840190509392505050565b600060608201905081810360008301526116a781868861165f565b90506116b66020830185611197565b6116c36040830184610fd4565b95945050505050565b7f46726175644c6f673a206576656e74206e6f7420666f756e6400000000000000600082015250565b6000611702601983610fe3565b915061170d826116cc565b602082019050919050565b60006020820190508181036000830152611731816116f5565b9050919050565b7f46726175644c6f673a2073636f7265206d75737420626520302d313030000000600082015250565b600061176e601d83610fe3565b915061177982611738565b602082019050919050565b6000602082019050818103600083015261179d81611761565b9050919050565b7f46726175644c6f673a206475706c6963617465206576656e7420686173680000600082015250565b60006117da601e83610fe3565b91506117e5826117a4565b602082019050919050565b60006020820190508181036000830152611809816117cd565b9050919050565b61181982610d99565b67ffffffffffffffff81111561183257611831611345565b5b61183c82546113a3565b6118478282856114f3565b600060209050601f83116001811461187a5760008415611868578287015190505b6118728582611564565b8655506118da565b601f198416611888866113d4565b60005b828110156118b05784890151825560018201915060208501945060208101905061188b565b868310156118cd57848901516118c9601f891682611546565b8355505b6001600288020188555050505b505050505050565b600081546118ef816113a3565b6118f98186610fe3565b94506001821660008114611914576001811461192a5761195d565b60ff19831686528115156020028601935061195d565b611933856113d4565b60005b8381101561195557815481890152600182019150602081019050611936565b808801955050505b50505092915050565b600060608201905061197b6000830186610fd4565b6119886020830185610fd4565b818103604083015261199a81846118e2565b9050949350505050565b7f46726175644c6f673a2063616c6c6572206973206e6f74206f776e6572000000600082015250565b60006119da601d83610fe3565b91506119e5826119a4565b602082019050919050565b60006020820190508181036000830152611a09816119cd565b9050919050565b7f46726175644c6f673a207a65726f206164647265737300000000000000000000600082015250565b6000611a46601683610fe3565b9150611a5182611a10565b602082019050919050565b60006020820190508181036000830152611a7581611a39565b905091905056fea26469706673582212200bbeb393cc62f927a0edfcb8d5a5dc106e35af618344b0b7c48457e9d454b8aa64736f6c63430008130033",
  "linkReferences": {},
  "deployedLinkReferences": {}
}